{
  "_format": "hh-sol-artifact-1",
  "contractName": "DarkMarketFHE",
  "sourceName": "contracts/FHECounter.sol",
  "abi": [
    {
      "inputs": [
        {
          "internalType": "address",
          "name": "user",
          "type": "address"
        }
      ],
      "name": "getEncryptedBalance",
      "outputs": [
        {
          "internalType": "bytes",
          "name": "",
          "type": "bytes"
        }
      ],
      "stateMutability": "view",
      "type": "function"
    },
    {
      "inputs": [
        {
          "internalType": "bytes",
          "name": "encryptedValue",
          "type": "bytes"
        }
      ],
      "name": "setEncryptedBalance",
      "outputs": [],
      "stateMutability": "nonpayable",
      "type": "function"
    }
  ],
  "bytecode": "0x608060405234801561001057600080fd5b506103c9806100206000396000f3fe608060405234801561001057600080fd5b50600436106100365760003560e01c8063402dc4e41461003b578063ea488fbc14610064575b600080fd5b61004e610049366004610144565b610079565b60405161005b9190610174565b60405180910390f35b6100776100723660046101c2565b610125565b005b6001600160a01b03811660009081526020819052604090208054606091906100a090610234565b80601f01602080910402602001604051908101604052809291908181526020018280546100cc90610234565b80156101195780601f106100ee57610100808354040283529160200191610119565b820191906000526020600020905b8154815290600101906020018083116100fc57829003601f168201915b50505050509050919050565b33600090815260208190526040902061013f8284836102d2565b505050565b60006020828403121561015657600080fd5b81356001600160a01b038116811461016d57600080fd5b9392505050565b600060208083528351808285015260005b818110156101a157858101830151858201604001528201610185565b506000604082860101526040601f19601f8301168501019250505092915050565b600080602083850312156101d557600080fd5b823567ffffffffffffffff808211156101ed57600080fd5b818501915085601f83011261020157600080fd5b81358181111561021057600080fd5b86602082850101111561022257600080fd5b60209290920196919550909350505050565b600181811c9082168061024857607f821691505b60208210810361026857634e487b7160e01b600052602260045260246000fd5b50919050565b634e487b7160e01b600052604160045260246000fd5b601f82111561013f57600081815260208120601f850160051c810160208610156102ab5750805b601f850160051c820191505b818110156102ca578281556001016102b7565b505050505050565b67ffffffffffffffff8311156102ea576102ea61026e565b6102fe836102f88354610234565b83610284565b6000601f841160018114610332576000851561031a5750838201355b600019600387901b1c1916600186901b17835561038c565b600083815260209020601f19861690835b828110156103635786850135825560209485019460019092019101610343565b50868210156103805760001960f88860031b161c19848701351681555b505060018560011b0183555b505050505056fea2646970667358221220c53e25a230ad9d5b8f1a29a4315c332dba9b61b6a7a470c9399cc1181638e86264736f6c63430008130033",
  "linkReferences": {},
  "deployedLinkReferences": {}
}