{
  "_format": "hh-sol-artifact-1",
  "contractName": "DarkMarketFHE",
  "sourceName": "contracts/FHECounter.sol",
  "abi": [
    {
      "inputs": [
        {
          "internalType": "address",
          "name": "user",
          "type": "address"
        }
      ],
      "name": "getEncryptedBalance",
      "outputs": [
        {
          "internalType": "bytes",
          "name": "",
          "type": "bytes"
        }
      ],
      "stateMutability": "view",
      "type": "function"
    },
    {
      "inputs": [
        {
          "internalType": "bytes",
          "name": "encryptedValue",
          "type": "bytes"
        }
      ],
      "name": "setEncryptedBalance",
      "outputs": [],
      "stateMutability": "nonpayable",
      "type": "function"
    }
  ],
  "bytecode": "0x608060405234801561001057600080fd5b506106f8806100206000396000f3fe608060405234801561001057600080fd5b50600436106100365760003560e01c8063402dc4e41461003b578063ea488fbc1461006b575b600080fd5b61005560048036038101906100509190610211565b610087565b60405161006291906102ce565b60405180910390f35b61008560048036038101906100809190610355565b610157565b005b60606000808373ffffffffffffffffffffffffffffffffffffffff1673ffffffffffffffffffffffffffffffffffffffff16815260200190815260200160002080546100d2906103d1565b80601f01602080910402602001604051908101604052809291908181526020018280546100fe906103d1565b801561014b5780601f106101205761010080835404028352916020019161014b565b820191906000526020600020905b81548152906001019060200180831161012e57829003601f168201915b50505050509050919050565b81816000803373ffffffffffffffffffffffffffffffffffffffff1673ffffffffffffffffffffffffffffffffffffffff16815260200190815260200160002091826101a49291906105f2565b505050565b600080fd5b600080fd5b600073ffffffffffffffffffffffffffffffffffffffff82169050919050565b60006101de826101b3565b9050919050565b6101ee816101d3565b81146101f957600080fd5b50565b60008135905061020b816101e5565b92915050565b600060208284031215610227576102266101a9565b5b6000610235848285016101fc565b91505092915050565b600081519050919050565b600082825260208201905092915050565b60005b8381101561027857808201518184015260208101905061025d565b60008484015250505050565b6000601f19601f8301169050919050565b60006102a08261023e565b6102aa8185610249565b93506102ba81856020860161025a565b6102c381610284565b840191505092915050565b600060208201905081810360008301526102e88184610295565b905092915050565b600080fd5b600080fd5b600080fd5b60008083601f840112610315576103146102f0565b5b8235905067ffffffffffffffff811115610332576103316102f5565b5b60208301915083600182028301111561034e5761034d6102fa565b5b9250929050565b6000806020838503121561036c5761036b6101a9565b5b600083013567ffffffffffffffff81111561038a576103896101ae565b5b610396858286016102ff565b92509250509250929050565b7f4e487b7100000000000000000000000000000000000000000000000000000000600052602260045260246000fd5b600060028204905060018216806103e957607f821691505b6020821081036103fc576103fb6103a2565b5b50919050565b600082905092915050565b7f4e487b7100000000000000000000000000000000000000000000000000000000600052604160045260246000fd5b60008190508160005260206000209050919050565b60006020601f8301049050919050565b600082821b905092915050565b60006008830261049e7fffffffffffffffffffffffffffffffffffffffffffffffffffffffffffffffff82610461565b6104a88683610461565b95508019841693508086168417925050509392505050565b6000819050919050565b6000819050919050565b60006104ef6104ea6104e5846104c0565b6104ca565b6104c0565b9050919050565b6000819050919050565b610509836104d4565b61051d610515826104f6565b84845461046e565b825550505050565b600090565b610532610525565b61053d818484610500565b505050565b5b818110156105615761055660008261052a565b600181019050610543565b5050565b601f8211156105a6576105778161043c565b61058084610451565b8101602085101561058f578190505b6105a361059b85610451565b830182610542565b50505b505050565b600082821c905092915050565b60006105c9600019846008026105ab565b1980831691505092915050565b60006105e283836105b8565b9150826002028217905092915050565b6105fc8383610402565b67ffffffffffffffff8111156106155761061461040d565b5b61061f82546103d1565b61062a828285610565565b6000601f8311600181146106595760008415610647578287013590505b61065185826105d6565b8655506106b9565b601f1984166106678661043c565b60005b8281101561068f5784890135825560018201915060208501945060208101905061066a565b868310156106ac57848901356106a8601f8916826105b8565b8355505b6001600288020188555050505b5050505050505056fea26469706673582212208140c499b24d325f78c9d09290c766858b285341c6b5643281459c12c3409bf564736f6c63430008130033",
  "linkReferences": {},
  "deployedLinkReferences": {}
}