{"contracts/MockEncryptedMath.sol":{"MockEncryptedMath":{"abi":[{"inputs":[{"internalType":"string","name":"ciphertext1","type":"string"},{"internalType":"string","name":"ciphertext2","type":"string"}],"name":"addEncrypted","outputs":[{"internalType":"string","name":"","type":"string"}],"stateMutability":"pure","type":"function"},{"inputs":[{"internalType":"string","name":"ciphertext1","type":"string"},{"internalType":"string","name":"ciphertext2","type":"string"}],"name":"compareEncrypted","outputs":[{"internalType":"uint8","name":"","type":"uint8"}],"stateMutability":"pure","type":"function"},{"inputs":[{"internalType":"string","name":"ciphertext1","type":"string"},{"internalType":"string","name":"ciphertext2","type":"string"}],"name":"encryptedMax","outputs":[{"internalType":"string","name":"","type":"string"}],"stateMutability":"pure","type":"function"}],"evm":{"bytecode":{"linkReferences":{},"object":"608060405234801561001057600080fd5b5061032c806100206000396000f3fe608060405234801561001057600080fd5b50600436106100415760003560e01c80637ea5e07d1461004657806385ab24071461006f578063a531279714610094575b600080fd5b6100596100543660046101d7565b6100a7565b604051610066919061025f565b60405180910390f35b61008261007d3660046101d7565b6100d4565b60405160ff9091168152602001610066565b6100596100a23660046101d7565b610110565b606082826040516020016100bc929190610292565b60405160208183030381529060405290505b92915050565b805182516000918491849110156100f0576001925050506100ce565b805182511015610105576002925050506100ce565b6000925050506100ce565b80518251606091849184911161012a5784925050506100ce565b83925050506100ce565b634e487b7160e01b600052604160045260246000fd5b600082601f83011261015b57600080fd5b813567ffffffffffffffff8082111561017657610176610134565b604051601f8301601f19908116603f0116810190828211818310171561019e5761019e610134565b816040528381528660208588010111156101b757600080fd5b836020870160208301376000602085830101528094505050505092915050565b600080604083850312156101ea57600080fd5b823567ffffffffffffffff8082111561020257600080fd5b61020e8683870161014a565b9350602085013591508082111561022457600080fd5b506102318582860161014a565b9150509250929050565b60005b8381101561025657818101518382015260200161023e565b50506000910152565b602081526000825180602084015261027e81604085016020870161023b565b601f01601f19169190910160400192915050565b6d0cadcc6e4f2e0e8cac8bec2c8c8560931b8152600083516102bb81600e85016020880161023b565b602b60f81b600e9184019182015283516102dc81600f84016020880161023b565b602960f81b600f929091019182015260100194935050505056fea264697066735822122078e9768c75910e57995991f77817a6e5db4628f38880f2b7ffc7cb8231637aa564736f6c63430008130033","opcodes":"PUSH1 0x80 PUSH1 0x40 MSTORE CALLVALUE DUP1 ISZERO PUSH2 0x10 JUMPI PUSH1 0x0 DUP1 REVERT JUMPDEST POP PUSH2 0x32C DUP1 PUSH2 0x20 PUSH1 0x0 CODECOPY PUSH1 0x0 RETURN INVALID PUSH1 0x80 PUSH1 0x40 MSTORE CALLVALUE DUP1 ISZERO PUSH2 0x10 JUMPI PUSH1 0x0 DUP1 REVERT JUMPDEST POP PUSH1 0x4 CALLDATASIZE LT PUSH2 0x41 JUMPI PUSH1 0x0 CALLDATALOAD PUSH1 0xE0 SHR DUP1 PUSH4 0x7EA5E07D EQ PUSH2 0x46 JUMPI DUP1 PUSH4 0x85AB2407 EQ PUSH2 0x6F JUMPI DUP1 PUSH4 0xA5312797 EQ PUSH2 0x94 JUMPI JUMPDEST PUSH1 0x0 DUP1 REVERT JUMPDEST PUSH2 0x59 PUSH2 0x54 CALLDATASIZE PUSH1 0x4 PUSH2 0x1D7 JUMP JUMPDEST PUSH2 0xA7 JUMP JUMPDEST PUSH1 0x40 MLOAD PUSH2 0x66 SWAP2 SWAP1 PUSH2 0x25F JUMP JUMPDEST PUSH1 0x40 MLOAD DUP1 SWAP2 SUB SWAP1 RETURN JUMPDEST PUSH2 0x82 PUSH2 0x7D CALLDATASIZE PUSH1 0x4 PUSH2 0x1D7 JUMP JUMPDEST PUSH2 0xD4 JUMP JUMPDEST PUSH1 0x40 MLOAD PUSH1 0xFF SWAP1 SWAP2 AND DUP2 MSTORE PUSH1 0x20 ADD PUSH2 0x66 JUMP JUMPDEST PUSH2 0x59 PUSH2 0xA2 CALLDATASIZE PUSH1 0x4 PUSH2 0x1D7 JUMP JUMPDEST PUSH2 0x110 JUMP JUMPDEST PUSH1 0x60 DUP3 DUP3 PUSH1 0x40 MLOAD PUSH1 0x20 ADD PUSH2 0xBC SWAP3 SWAP2 SWAP1 PUSH2 0x292 JUMP JUMPDEST PUSH1 0x40 MLOAD PUSH1 0x20 DUP2 DUP4 SUB SUB DUP2 MSTORE SWAP1 PUSH1 0x40 MSTORE SWAP1 POP JUMPDEST SWAP3 SWAP2 POP POP JUMP JUMPDEST DUP1 MLOAD DUP3 MLOAD PUSH1 0x0 SWAP2 DUP5 SWAP2 DUP5 SWAP2 LT ISZERO PUSH2 0xF0 JUMPI PUSH1 0x1 SWAP3 POP POP POP PUSH2 0xCE JUMP JUMPDEST DUP1 MLOAD DUP3 MLOAD LT ISZERO PUSH2 0x105 JUMPI PUSH1 0x2 SWAP3 POP POP POP PUSH2 0xCE JUMP JUMPDEST PUSH1 0x0 SWAP3 POP POP POP PUSH2 0xCE JUMP JUMPDEST DUP1 MLOAD DUP3 MLOAD PUSH1 0x60 SWAP2 DUP5 SWAP2 DUP5 SWAP2 GT PUSH2 0x12A JUMPI DUP5 SWAP3 POP POP POP PUSH2 0xCE JUMP JUMPDEST DUP4 SWAP3 POP POP POP PUSH2 0xCE JUMP JUMPDEST PUSH4 0x4E487B71 PUSH1 0xE0 SHL PUSH1 0x0 MSTORE PUSH1 0x41 PUSH1 0x4 MSTORE PUSH1 0x24 PUSH1 0x0 REVERT JUMPDEST PUSH1 0x0 DUP3 PUSH1 0x1F DUP4 ADD SLT PUSH2 0x15B JUMPI PUSH1 0x0 DUP1 REVERT JUMPDEST DUP2 CALLDATALOAD PUSH8 0xFFFFFFFFFFFFFFFF DUP1 DUP3 GT ISZERO PUSH2 0x176 JUMPI PUSH2 0x176 PUSH2 0x134 JUMP JUMPDEST PUSH1 0x40 MLOAD PUSH1 0x1F DUP4 ADD PUSH1 0x1F NOT SWAP1 DUP2 AND PUSH1 0x3F ADD AND DUP2 ADD SWAP1 DUP3 DUP3 GT DUP2 DUP4 LT OR ISZERO PUSH2 0x19E JUMPI PUSH2 0x19E PUSH2 0x134 JUMP JUMPDEST DUP2 PUSH1 0x40 MSTORE DUP4 DUP2 MSTORE DUP7 PUSH1 0x20 DUP6 DUP9 ADD ADD GT ISZERO PUSH2 0x1B7 JUMPI PUSH1 0x0 DUP1 REVERT JUMPDEST DUP4 PUSH1 0x20 DUP8 ADD PUSH1 0x20 DUP4 ADD CALLDATACOPY PUSH1 0x0 PUSH1 0x20 DUP6 DUP4 ADD ADD MSTORE DUP1 SWAP5 POP POP POP POP POP SWAP3 SWAP2 POP POP JUMP JUMPDEST PUSH1 0x0 DUP1 PUSH1 0x40 DUP4 DUP6 SUB SLT ISZERO PUSH2 0x1EA JUMPI PUSH1 0x0 DUP1 REVERT JUMPDEST DUP3 CALLDATALOAD PUSH8 0xFFFFFFFFFFFFFFFF DUP1 DUP3 GT ISZERO PUSH2 0x202 JUMPI PUSH1 0x0 DUP1 REVERT JUMPDEST PUSH2 0x20E DUP7 DUP4 DUP8 ADD PUSH2 0x14A JUMP JUMPDEST SWAP4 POP PUSH1 0x20 DUP6 ADD CALLDATALOAD SWAP2 POP DUP1 DUP3 GT ISZERO PUSH2 0x224 JUMPI PUSH1 0x0 DUP1 REVERT JUMPDEST POP PUSH2 0x231 DUP6 DUP3 DUP7 ADD PUSH2 0x14A JUMP JUMPDEST SWAP2 POP POP SWAP3 POP SWAP3 SWAP1 POP JUMP JUMPDEST PUSH1 0x0 JUMPDEST DUP4 DUP2 LT ISZERO PUSH2 0x256 JUMPI DUP2 DUP2 ADD MLOAD DUP4 DUP3 ADD MSTORE PUSH1 0x20 ADD PUSH2 0x23E JUMP JUMPDEST POP POP PUSH1 0x0 SWAP2 ADD MSTORE JUMP JUMPDEST PUSH1 0x20 DUP2 MSTORE PUSH1 0x0 DUP3 MLOAD DUP1 PUSH1 0x20 DUP5 ADD MSTORE PUSH2 0x27E DUP2 PUSH1 0x40 DUP6 ADD PUSH1 0x20 DUP8 ADD PUSH2 0x23B JUMP JUMPDEST PUSH1 0x1F ADD PUSH1 0x1F NOT AND SWAP2 SWAP1 SWAP2 ADD PUSH1 0x40 ADD SWAP3 SWAP2 POP POP JUMP JUMPDEST PUSH14 0xCADCC6E4F2E0E8CAC8BEC2C8C85 PUSH1 0x93 SHL DUP2 MSTORE PUSH1 0x0 DUP4 MLOAD PUSH2 0x2BB DUP2 PUSH1 0xE DUP6 ADD PUSH1 0x20 DUP9 ADD PUSH2 0x23B JUMP JUMPDEST PUSH1 0x2B PUSH1 0xF8 SHL PUSH1 0xE SWAP2 DUP5 ADD SWAP2 DUP3 ADD MSTORE DUP4 MLOAD PUSH2 0x2DC DUP2 PUSH1 0xF DUP5 ADD PUSH1 0x20 DUP9 ADD PUSH2 0x23B JUMP JUMPDEST PUSH1 0x29 PUSH1 0xF8 SHL PUSH1 0xF SWAP3 SWAP1 SWAP2 ADD SWAP2 DUP3 ADD MSTORE PUSH1 0x10 ADD SWAP5 SWAP4 POP POP POP POP JUMP INVALID LOG2 PUSH5 0x6970667358 0x22 SLT KECCAK256 PUSH25 0xE9768C75910E57995991F77817A6E5DB4628F38880F2B7FFC7 0xCB DUP3 BALANCE PUSH4 0x7AA56473 PUSH16 0x6C634300081300330000000000000000 "},"methodIdentifiers":{"addEncrypted(string,string)":"7ea5e07d","compareEncrypted(string,string)":"85ab2407","encryptedMax(string,string)":"a5312797"}}}}}