{
  "_format": "hh-sol-artifact-1",
  "contractName": "DarkMarket",
  "sourceName": "contracts/DarkMarket.sol",
  "abi": [
    {
      "anonymous": false,
      "inputs": [
        {
          "indexed": true,
          "internalType": "uint256",
          "name": "bidId",
          "type": "uint256"
        },
        {
          "indexed": false,
          "internalType": "address",
          "name": "bidder",
          "type": "address"
        },
        {
          "indexed": false,
          "internalType": "uint256",
          "name": "listingId",
          "type": "uint256"
        }
      ],
      "name": "BidSubmitted",
      "type": "event"
    },
    {
      "anonymous": false,
      "inputs": [
        {
          "indexed": true,
          "internalType": "uint256",
          "name": "listingId",
          "type": "uint256"
        },
        {
          "indexed": false,
          "internalType": "address",
          "name": "seller",
          "type": "address"
        },
        {
          "indexed": false,
          "internalType": "string",
          "name": "encryptedPrice",
          "type": "string"
        }
      ],
      "name": "ListingCreated",
      "type": "event"
    },
    {
      "anonymous": false,
      "inputs": [
        {
          "indexed": true,
          "internalType": "uint256",
          "name": "listingId",
          "type": "uint256"
        },
        {
          "indexed": false,
          "internalType": "address",
          "name": "winner",
          "type": "address"
        },
        {
          "indexed": false,
          "internalType": "uint256",
          "name": "amount",
          "type": "uint256"
        }
      ],
      "name": "WinnerRevealed",
      "type": "event"
    },
    {
      "anonymous": false,
      "inputs": [
        {
          "indexed": true,
          "internalType": "uint256",
          "name": "listingId",
          "type": "uint256"
        },
        {
          "indexed": false,
          "internalType": "address",
          "name": "winner",
          "type": "address"
        },
        {
          "indexed": false,
          "internalType": "string",
          "name": "encryptedAmount",
          "type": "string"
        }
      ],
      "name": "WinnerSelected",
      "type": "event"
    },
    {
      "inputs": [],
      "name": "bidCounter",
      "outputs": [
        {
          "internalType": "uint256",
          "name": "",
          "type": "uint256"
        }
      ],
      "stateMutability": "view",
      "type": "function"
    },
    {
      "inputs": [
        {
          "internalType": "uint256",
          "name": "",
          "type": "uint256"
        }
      ],
      "name": "bids",
      "outputs": [
        {
          "internalType": "address",
          "name": "bidder",
          "type": "address"
        },
        {
          "internalType": "string",
          "name": "encryptedBid",
          "type": "string"
        },
        {
          "internalType": "uint256",
          "name": "listingId",
          "type": "uint256"
        },
        {
          "internalType": "uint256",
          "name": "timestamp",
          "type": "uint256"
        },
        {
          "internalType": "bool",
          "name": "revealed",
          "type": "bool"
        }
      ],
      "stateMutability": "view",
      "type": "function"
    },
    {
      "inputs": [
        {
          "internalType": "string",
          "name": "_encryptedPrice",
          "type": "string"
        }
      ],
      "name": "createListing",
      "outputs": [],
      "stateMutability": "nonpayable",
      "type": "function"
    },
    {
      "inputs": [],
      "name": "listingCounter",
      "outputs": [
        {
          "internalType": "uint256",
          "name": "",
          "type": "uint256"
        }
      ],
      "stateMutability": "view",
      "type": "function"
    },
    {
      "inputs": [
        {
          "internalType": "uint256",
          "name": "",
          "type": "uint256"
        }
      ],
      "name": "listings",
      "outputs": [
        {
          "internalType": "address",
          "name": "seller",
          "type": "address"
        },
        {
          "internalType": "string",
          "name": "encryptedPrice",
          "type": "string"
        },
        {
          "internalType": "uint256",
          "name": "listingId",
          "type": "uint256"
        },
        {
          "internalType": "uint256",
          "name": "timestamp",
          "type": "uint256"
        },
        {
          "internalType": "bool",
          "name": "active",
          "type": "bool"
        }
      ],
      "stateMutability": "view",
      "type": "function"
    },
    {
      "inputs": [
        {
          "internalType": "uint256",
          "name": "_listingId",
          "type": "uint256"
        },
        {
          "internalType": "uint256",
          "name": "_decryptedAmount",
          "type": "uint256"
        }
      ],
      "name": "revealWinner",
      "outputs": [],
      "stateMutability": "nonpayable",
      "type": "function"
    },
    {
      "inputs": [
        {
          "internalType": "uint256",
          "name": "_listingId",
          "type": "uint256"
        },
        {
          "internalType": "address",
          "name": "_winner",
          "type": "address"
        },
        {
          "internalType": "string",
          "name": "_encryptedAmount",
          "type": "string"
        }
      ],
      "name": "selectWinner",
      "outputs": [],
      "stateMutability": "nonpayable",
      "type": "function"
    },
    {
      "inputs": [
        {
          "internalType": "uint256",
          "name": "_listingId",
          "type": "uint256"
        },
        {
          "internalType": "string",
          "name": "_encryptedBid",
          "type": "string"
        }
      ],
      "name": "submitBid",
      "outputs": [],
      "stateMutability": "nonpayable",
      "type": "function"
    },
    {
      "inputs": [
        {
          "internalType": "uint256",
          "name": "",
          "type": "uint256"
        }
      ],
      "name": "winners",
      "outputs": [
        {
          "internalType": "address",
          "name": "winner",
          "type": "address"
        },
        {
          "internalType": "string",
          "name": "encryptedAmount",
          "type": "string"
        },
        {
          "internalType": "uint256",
          "name": "listingId",
          "type": "uint256"
        },
        {
          "internalType": "bool",
          "name": "decrypted",
          "type": "bool"
        }
      ],
      "stateMutability": "view",
      "type": "function"
    }
  ],
  "bytecode": "0x608060405234801561001057600080fd5b50610bd8806100206000396000f3fe608060405234801561001057600080fd5b50600436106100935760003560e01c80636c2c9c7d116100665780636c2c9c7d14610100578063a2fb117514610109578063a62829821461012c578063de74e57b1461013f578063df13d7ad1461015257600080fd5b806303f69354146100985780633a01135e146100b45780634423c5f1146100c957806361245a38146100ed575b600080fd5b6100a160015481565b6040519081526020015b60405180910390f35b6100c76100c2366004610825565b610165565b005b6100dc6100d736600461086c565b6102ae565b6040516100ab9594939291906108cb565b6100c76100fb36600461090e565b610374565b6100a160005481565b61011c61011736600461086c565b610460565b6040516100ab949392919061094b565b6100c761013a366004610987565b61051f565b6100dc61014d36600461086c565b61064d565b6100c76101603660046109ec565b610679565b60008281526002602052604090206004015460ff166101c05760405162461bcd60e51b81526020600482015260126024820152714c697374696e67206e6f742061637469766560701b60448201526064015b60405180910390fd5b600180549060006101d083610a0e565b90915550506040805160a0810182523381526020808201848152828401869052426060840152600060808401819052600180548252600390935293909320825181546001600160a01b0319166001600160a01b0390911617815592519192919082019061023d9082610abe565b506040828101516002830155606083015160038301556080909201516004909101805460ff191691151591909117905560015481513381526020810185905290917f177554f051f4aa1f0d0310334854b429baeecdb5a96bc329a26fd0cb7c8a7be391015b60405180910390a25050565b600360205260009081526040902080546001820180546001600160a01b0390921692916102da90610a35565b80601f016020809104026020016040519081016040528092919081815260200182805461030690610a35565b80156103535780601f1061032857610100808354040283529160200191610353565b820191906000526020600020905b81548152906001019060200180831161033657829003601f168201915b50505050600283015460038401546004909401549293909290915060ff1685565b60008054908061038383610a0e565b90915550506040805160a081018252338152602080820184815260008054848601819052426060860152600160808601819052908252600290935293909320825181546001600160a01b0319166001600160a01b039091161781559251919291908201906103f19082610abe565b506040828101516002830155606083015160038301556080909201516004909101805460ff191691151591909117905560005490517ffccfab3757a37767d03b5ffd499faaa9faf5a6d33900ee43e310e77bce34940b906104559033908590610b7e565b60405180910390a250565b600460205260009081526040902080546001820180546001600160a01b03909216929161048c90610a35565b80601f01602080910402602001604051908101604052809291908181526020018280546104b890610a35565b80156105055780601f106104da57610100808354040283529160200191610505565b820191906000526020600020905b8154815290600101906020018083116104e857829003601f168201915b50505050600283015460039093015491929160ff16905084565b6000838152600260205260409020546001600160a01b031633146105855760405162461bcd60e51b815260206004820152601d60248201527f4f6e6c792073656c6c65722063616e2073656c6563742077696e6e657200000060448201526064016101b7565b604080516080810182526001600160a01b03848116825260208083018581528385018890526000606085018190528881526004909252939020825181546001600160a01b0319169216919091178155915190919060018201906105e89082610abe565b5060408281015160028301556060909201516003909101805460ff19169115159190911790555183907ff0edb708abe2947e8b3a7d8a980b595e27795d26f851adb55831d7fcf10254b3906106409085908590610b7e565b60405180910390a2505050565b600260205260009081526040902080546001820180546001600160a01b0390921692916102da90610a35565b6000828152600460205260409020546001600160a01b031633146106d85760405162461bcd60e51b815260206004820152601660248201527513db9b1e481dda5b9b995c8818d85b881c995d99585b60521b60448201526064016101b7565b60008281526004602052604090206003015460ff161561072d5760405162461bcd60e51b815260206004820152601060248201526f105b1c9958591e481c995d99585b195960821b60448201526064016101b7565b600082815260046020908152604091829020600301805460ff19166001179055815133815290810183905283917f992535e802e8123e9eb931d979647edc6493f77f265deea35426b61dde47f78b91016102a2565b634e487b7160e01b600052604160045260246000fd5b600082601f8301126107a957600080fd5b813567ffffffffffffffff808211156107c4576107c4610782565b604051601f8301601f19908116603f011681019082821181831017156107ec576107ec610782565b8160405283815286602085880101111561080557600080fd5b836020870160208301376000602085830101528094505050505092915050565b6000806040838503121561083857600080fd5b82359150602083013567ffffffffffffffff81111561085657600080fd5b61086285828601610798565b9150509250929050565b60006020828403121561087e57600080fd5b5035919050565b6000815180845260005b818110156108ab5760208185018101518683018201520161088f565b506000602082860101526020601f19601f83011685010191505092915050565b6001600160a01b038616815260a0602082018190526000906108ef90830187610885565b6040830195909552506060810192909252151560809091015292915050565b60006020828403121561092057600080fd5b813567ffffffffffffffff81111561093757600080fd5b61094384828501610798565b949350505050565b6001600160a01b038516815260806020820181905260009061096f90830186610885565b60408301949094525090151560609091015292915050565b60008060006060848603121561099c57600080fd5b8335925060208401356001600160a01b03811681146109ba57600080fd5b9150604084013567ffffffffffffffff8111156109d657600080fd5b6109e286828701610798565b9150509250925092565b600080604083850312156109ff57600080fd5b50508035926020909101359150565b600060018201610a2e57634e487b7160e01b600052601160045260246000fd5b5060010190565b600181811c90821680610a4957607f821691505b602082108103610a6957634e487b7160e01b600052602260045260246000fd5b50919050565b601f821115610ab957600081815260208120601f850160051c81016020861015610a965750805b601f850160051c820191505b81811015610ab557828155600101610aa2565b5050505b505050565b815167ffffffffffffffff811115610ad857610ad8610782565b610aec81610ae68454610a35565b84610a6f565b602080601f831160018114610b215760008415610b095750858301515b600019600386901b1c1916600185901b178555610ab5565b600085815260208120601f198616915b82811015610b5057888601518255948401946001909101908401610b31565b5085821015610b6e5787850151600019600388901b60f8161c191681555b5050505050600190811b01905550565b6001600160a01b03831681526040602082018190526000906109439083018461088556fea2646970667358221220669cab9149c4ef2c26d4c5e28903a2cb4909d9f2f34337add6960744f516898464736f6c63430008130033",
  "linkReferences": {},
  "deployedLinkReferences": {}
}