{
  "_format": "hh-sol-artifact-1",
  "contractName": "DarkMarket",
  "sourceName": "contracts/DarkMarket.sol",
  "abi": [
    {
      "anonymous": false,
      "inputs": [
        {
          "indexed": true,
          "internalType": "uint256",
          "name": "bidId",
          "type": "uint256"
        },
        {
          "indexed": false,
          "internalType": "address",
          "name": "bidder",
          "type": "address"
        },
        {
          "indexed": false,
          "internalType": "uint256",
          "name": "listingId",
          "type": "uint256"
        }
      ],
      "name": "BidSubmitted",
      "type": "event"
    },
    {
      "anonymous": false,
      "inputs": [
        {
          "indexed": true,
          "internalType": "uint256",
          "name": "listingId",
          "type": "uint256"
        },
        {
          "indexed": false,
          "internalType": "address",
          "name": "seller",
          "type": "address"
        },
        {
          "indexed": false,
          "internalType": "string",
          "name": "encryptedPrice",
          "type": "string"
        }
      ],
      "name": "ListingCreated",
      "type": "event"
    },
    {
      "anonymous": false,
      "inputs": [
        {
          "indexed": true,
          "internalType": "uint256",
          "name": "listingId",
          "type": "uint256"
        },
        {
          "indexed": false,
          "internalType": "address",
          "name": "winner",
          "type": "address"
        },
        {
          "indexed": false,
          "internalType": "uint256",
          "name": "amount",
          "type": "uint256"
        }
      ],
      "name": "WinnerRevealed",
      "type": "event"
    },
    {
      "anonymous": false,
      "inputs": [
        {
          "indexed": true,
          "internalType": "uint256",
          "name": "listingId",
          "type": "uint256"
        },
        {
          "indexed": false,
          "internalType": "address",
          "name": "winner",
          "type": "address"
        },
        {
          "indexed": false,
          "internalType": "string",
          "name": "encryptedAmount",
          "type": "string"
        }
      ],
      "name": "WinnerSelected",
      "type": "event"
    },
    {
      "inputs": [],
      "name": "bidCounter",
      "outputs": [
        {
          "internalType": "uint256",
          "name": "",
          "type": "uint256"
        }
      ],
      "stateMutability": "view",
      "type": "function"
    },
    {
      "inputs": [
        {
          "internalType": "uint256",
          "name": "",
          "type": "uint256"
        }
      ],
      "name": "bids",
      "outputs": [
        {
          "internalType": "address",
          "name": "bidder",
          "type": "address"
        },
        {
          "internalType": "string",
          "name": "encryptedBid",
          "type": "string"
        },
        {
          "internalType": "uint256",
          "name": "listingId",
          "type": "uint256"
        },
        {
          "internalType": "uint256",
          "name": "timestamp",
          "type": "uint256"
        },
        {
          "internalType": "bool",
          "name": "revealed",
          "type": "bool"
        }
      ],
      "stateMutability": "view",
      "type": "function"
    },
    {
      "inputs": [
        {
          "internalType": "string",
          "name": "_encryptedPrice",
          "type": "string"
        }
      ],
      "name": "createListing",
      "outputs": [],
      "stateMutability": "nonpayable",
      "type": "function"
    },
    {
      "inputs": [],
      "name": "listingCounter",
      "outputs": [
        {
          "internalType": "uint256",
          "name": "",
          "type": "uint256"
        }
      ],
      "stateMutability": "view",
      "type": "function"
    },
    {
      "inputs": [
        {
          "internalType": "uint256",
          "name": "",
          "type": "uint256"
        }
      ],
      "name": "listings",
      "outputs": [
        {
          "internalType": "address",
          "name": "seller",
          "type": "address"
        },
        {
          "internalType": "string",
          "name": "encryptedPrice",
          "type": "string"
        },
        {
          "internalType": "uint256",
          "name": "listingId",
          "type": "uint256"
        },
        {
          "internalType": "uint256",
          "name": "timestamp",
          "type": "uint256"
        },
        {
          "internalType": "bool",
          "name": "active",
          "type": "bool"
        }
      ],
      "stateMutability": "view",
      "type": "function"
    },
    {
      "inputs": [
        {
          "internalType": "uint256",
          "name": "_listingId",
          "type": "uint256"
        },
        {
          "internalType": "uint256",
          "name": "_decryptedAmount",
          "type": "uint256"
        }
      ],
      "name": "revealWinner",
      "outputs": [],
      "stateMutability": "nonpayable",
      "type": "function"
    },
    {
      "inputs": [
        {
          "internalType": "uint256",
          "name": "_listingId",
          "type": "uint256"
        },
        {
          "internalType": "address",
          "name": "_winner",
          "type": "address"
        },
        {
          "internalType": "string",
          "name": "_encryptedAmount",
          "type": "string"
        }
      ],
      "name": "selectWinner",
      "outputs": [],
      "stateMutability": "nonpayable",
      "type": "function"
    },
    {
      "inputs": [
        {
          "internalType": "uint256",
          "name": "_listingId",
          "type": "uint256"
        },
        {
          "internalType": "string",
          "name": "_encryptedBid",
          "type": "string"
        }
      ],
      "name": "submitBid",
      "outputs": [],
      "stateMutability": "nonpayable",
      "type": "function"
    },
    {
      "inputs": [
        {
          "internalType": "uint256",
          "name": "",
          "type": "uint256"
        }
      ],
      "name": "winners",
      "outputs": [
        {
          "internalType": "address",
          "name": "winner",
          "type": "address"
        },
        {
          "internalType": "string",
          "name": "encryptedAmount",
          "type": "string"
        },
        {
          "internalType": "uint256",
          "name": "listingId",
          "type": "uint256"
        },
        {
          "internalType": "bool",
          "name": "decrypted",
          "type": "bool"
        }
      ],
      "stateMutability": "view",
      "type": "function"
    }
  ],
  "bytecode": "0x608060405234801561001057600080fd5b50611535806100206000396000f3fe608060405234801561001057600080fd5b50600436106100935760003560e01c80636c2c9c7d116100665780636c2c9c7d14610122578063a2fb117514610140578063a628298214610173578063de74e57b1461018f578063df13d7ad146101c357610093565b806303f69354146100985780633a01135e146100b65780634423c5f1146100d257806361245a3814610106575b600080fd5b6100a06101df565b6040516100ad9190610ad2565b60405180910390f35b6100d060048036038101906100cb9190610c73565b6101e5565b005b6100ec60048036038101906100e79190610ccf565b610389565b6040516100fd959493929190610dd7565b60405180910390f35b610120600480360381019061011b9190610e31565b610474565b005b61012a6105b4565b6040516101379190610ad2565b60405180910390f35b61015a60048036038101906101559190610ccf565b6105ba565b60405161016a9493929190610e7a565b60405180910390f35b61018d60048036038101906101889190610ef2565b61069f565b005b6101a960048036038101906101a49190610ccf565b610859565b6040516101ba959493929190610dd7565b60405180910390f35b6101dd60048036038101906101d89190610f61565b610944565b005b60015481565b6002600083815260200190815260200160002060040160009054906101000a900460ff16610248576040517f08c379a000000000000000000000000000000000000000000000000000000000815260040161023f90610fed565b60405180910390fd5b6001600081548092919061025b9061103c565b91905055506040518060a001604052803373ffffffffffffffffffffffffffffffffffffffff1681526020018281526020018381526020014281526020016000151581525060036000600154815260200190815260200160002060008201518160000160006101000a81548173ffffffffffffffffffffffffffffffffffffffff021916908373ffffffffffffffffffffffffffffffffffffffff16021790555060208201518160010190816103119190611290565b50604082015181600201556060820151816003015560808201518160040160006101000a81548160ff0219169083151502179055509050506001547f177554f051f4aa1f0d0310334854b429baeecdb5a96bc329a26fd0cb7c8a7be3338460405161037d929190611362565b60405180910390a25050565b60036020528060005260406000206000915090508060000160009054906101000a900473ffffffffffffffffffffffffffffffffffffffff16908060010180546103d2906110b3565b80601f01602080910402602001604051908101604052809291908181526020018280546103fe906110b3565b801561044b5780601f106104205761010080835404028352916020019161044b565b820191906000526020600020905b81548152906001019060200180831161042e57829003601f168201915b5050505050908060020154908060030154908060040160009054906101000a900460ff16905085565b6000808154809291906104869061103c565b91905055506040518060a001604052803373ffffffffffffffffffffffffffffffffffffffff168152602001828152602001600054815260200142815260200160011515815250600260008054815260200190815260200160002060008201518160000160006101000a81548173ffffffffffffffffffffffffffffffffffffffff021916908373ffffffffffffffffffffffffffffffffffffffff160217905550602082015181600101908161053d9190611290565b50604082015181600201556060820151816003015560808201518160040160006101000a81548160ff0219169083151502179055509050506000547ffccfab3757a37767d03b5ffd499faaa9faf5a6d33900ee43e310e77bce34940b33836040516105a992919061138b565b60405180910390a250565b60005481565b60046020528060005260406000206000915090508060000160009054906101000a900473ffffffffffffffffffffffffffffffffffffffff1690806001018054610603906110b3565b80601f016020809104026020016040519081016040528092919081815260200182805461062f906110b3565b801561067c5780601f106106515761010080835404028352916020019161067c565b820191906000526020600020905b81548152906001019060200180831161065f57829003601f168201915b5050505050908060020154908060030160009054906101000a900460ff16905084565b3373ffffffffffffffffffffffffffffffffffffffff166002600085815260200190815260200160002060000160009054906101000a900473ffffffffffffffffffffffffffffffffffffffff1673ffffffffffffffffffffffffffffffffffffffff1614610743576040517f08c379a000000000000000000000000000000000000000000000000000000000815260040161073a90611407565b60405180910390fd5b60405180608001604052808373ffffffffffffffffffffffffffffffffffffffff168152602001828152602001848152602001600015158152506004600085815260200190815260200160002060008201518160000160006101000a81548173ffffffffffffffffffffffffffffffffffffffff021916908373ffffffffffffffffffffffffffffffffffffffff16021790555060208201518160010190816107ec9190611290565b506040820151816002015560608201518160030160006101000a81548160ff021916908315150217905550905050827ff0edb708abe2947e8b3a7d8a980b595e27795d26f851adb55831d7fcf10254b3838360405161084c92919061138b565b60405180910390a2505050565b60026020528060005260406000206000915090508060000160009054906101000a900473ffffffffffffffffffffffffffffffffffffffff16908060010180546108a2906110b3565b80601f01602080910402602001604051908101604052809291908181526020018280546108ce906110b3565b801561091b5780601f106108f05761010080835404028352916020019161091b565b820191906000526020600020905b8154815290600101906020018083116108fe57829003601f168201915b5050505050908060020154908060030154908060040160009054906101000a900460ff16905085565b3373ffffffffffffffffffffffffffffffffffffffff166004600084815260200190815260200160002060000160009054906101000a900473ffffffffffffffffffffffffffffffffffffffff1673ffffffffffffffffffffffffffffffffffffffff16146109e8576040517f08c379a00000000000000000000000000000000000000000000000000000000081526004016109df90611473565b60405180910390fd5b6004600083815260200190815260200160002060030160009054906101000a900460ff1615610a4c576040517f08c379a0000000000000000000000000000000000000000000000000000000008152600401610a43906114df565b60405180910390fd5b60016004600084815260200190815260200160002060030160006101000a81548160ff021916908315150217905550817f992535e802e8123e9eb931d979647edc6493f77f265deea35426b61dde47f78b3383604051610aad929190611362565b60405180910390a25050565b6000819050919050565b610acc81610ab9565b82525050565b6000602082019050610ae76000830184610ac3565b92915050565b6000604051905090565b600080fd5b600080fd5b610b0a81610ab9565b8114610b1557600080fd5b50565b600081359050610b2781610b01565b92915050565b600080fd5b600080fd5b6000601f19601f8301169050919050565b7f4e487b7100000000000000000000000000000000000000000000000000000000600052604160045260246000fd5b610b8082610b37565b810181811067ffffffffffffffff82111715610b9f57610b9e610b48565b5b80604052505050565b6000610bb2610aed565b9050610bbe8282610b77565b919050565b600067ffffffffffffffff821115610bde57610bdd610b48565b5b610be782610b37565b9050602081019050919050565b82818337600083830152505050565b6000610c16610c1184610bc3565b610ba8565b905082815260208101848484011115610c3257610c31610b32565b5b610c3d848285610bf4565b509392505050565b600082601f830112610c5a57610c59610b2d565b5b8135610c6a848260208601610c03565b91505092915050565b60008060408385031215610c8a57610c89610af7565b5b6000610c9885828601610b18565b925050602083013567ffffffffffffffff811115610cb957610cb8610afc565b5b610cc585828601610c45565b9150509250929050565b600060208284031215610ce557610ce4610af7565b5b6000610cf384828501610b18565b91505092915050565b600073ffffffffffffffffffffffffffffffffffffffff82169050919050565b6000610d2782610cfc565b9050919050565b610d3781610d1c565b82525050565b600081519050919050565b600082825260208201905092915050565b60005b83811015610d77578082015181840152602081019050610d5c565b60008484015250505050565b6000610d8e82610d3d565b610d988185610d48565b9350610da8818560208601610d59565b610db181610b37565b840191505092915050565b60008115159050919050565b610dd181610dbc565b82525050565b600060a082019050610dec6000830188610d2e565b8181036020830152610dfe8187610d83565b9050610e0d6040830186610ac3565b610e1a6060830185610ac3565b610e276080830184610dc8565b9695505050505050565b600060208284031215610e4757610e46610af7565b5b600082013567ffffffffffffffff811115610e6557610e64610afc565b5b610e7184828501610c45565b91505092915050565b6000608082019050610e8f6000830187610d2e565b8181036020830152610ea18186610d83565b9050610eb06040830185610ac3565b610ebd6060830184610dc8565b95945050505050565b610ecf81610d1c565b8114610eda57600080fd5b50565b600081359050610eec81610ec6565b92915050565b600080600060608486031215610f0b57610f0a610af7565b5b6000610f1986828701610b18565b9350506020610f2a86828701610edd565b925050604084013567ffffffffffffffff811115610f4b57610f4a610afc565b5b610f5786828701610c45565b9150509250925092565b60008060408385031215610f7857610f77610af7565b5b6000610f8685828601610b18565b9250506020610f9785828601610b18565b9150509250929050565b7f4c697374696e67206e6f74206163746976650000000000000000000000000000600082015250565b6000610fd7601283610d48565b9150610fe282610fa1565b602082019050919050565b6000602082019050818103600083015261100681610fca565b9050919050565b7f4e487b7100000000000000000000000000000000000000000000000000000000600052601160045260246000fd5b600061104782610ab9565b91507fffffffffffffffffffffffffffffffffffffffffffffffffffffffffffffffff82036110795761107861100d565b5b600182019050919050565b7f4e487b7100000000000000000000000000000000000000000000000000000000600052602260045260246000fd5b600060028204905060018216806110cb57607f821691505b6020821081036110de576110dd611084565b5b50919050565b60008190508160005260206000209050919050565b60006020601f8301049050919050565b600082821b905092915050565b6000600883026111467fffffffffffffffffffffffffffffffffffffffffffffffffffffffffffffffff82611109565b6111508683611109565b95508019841693508086168417925050509392505050565b6000819050919050565b600061118d61118861118384610ab9565b611168565b610ab9565b9050919050565b6000819050919050565b6111a783611172565b6111bb6111b382611194565b848454611116565b825550505050565b600090565b6111d06111c3565b6111db81848461119e565b505050565b5b818110156111ff576111f46000826111c8565b6001810190506111e1565b5050565b601f82111561124457611215816110e4565b61121e846110f9565b8101602085101561122d578190505b611241611239856110f9565b8301826111e0565b50505b505050565b600082821c905092915050565b600061126760001984600802611249565b1980831691505092915050565b60006112808383611256565b9150826002028217905092915050565b61129982610d3d565b67ffffffffffffffff8111156112b2576112b1610b48565b5b6112bc82546110b3565b6112c7828285611203565b600060209050601f8311600181146112fa57600084156112e8578287015190505b6112f28582611274565b86555061135a565b601f198416611308866110e4565b60005b828110156113305784890151825560018201915060208501945060208101905061130b565b8683101561134d5784890151611349601f891682611256565b8355505b6001600288020188555050505b505050505050565b60006040820190506113776000830185610d2e565b6113846020830184610ac3565b9392505050565b60006040820190506113a06000830185610d2e565b81810360208301526113b28184610d83565b90509392505050565b7f4f6e6c792073656c6c65722063616e2073656c6563742077696e6e6572000000600082015250565b60006113f1601d83610d48565b91506113fc826113bb565b602082019050919050565b60006020820190508181036000830152611420816113e4565b9050919050565b7f4f6e6c792077696e6e65722063616e2072657665616c00000000000000000000600082015250565b600061145d601683610d48565b915061146882611427565b602082019050919050565b6000602082019050818103600083015261148c81611450565b9050919050565b7f416c72656164792072657665616c656400000000000000000000000000000000600082015250565b60006114c9601083610d48565b91506114d482611493565b602082019050919050565b600060208201905081810360008301526114f8816114bc565b905091905056fea2646970667358221220032593d028f771f00ec58cea8a0c87356f0b23c58a474f4ebb5fa32b5b9e3b6864736f6c63430008130033",
  "linkReferences": {},
  "deployedLinkReferences": {}
}