{
  "_format": "hh-sol-artifact-1",
  "contractName": "MockDarkMarket",
  "sourceName": "contracts/MockDarkMarket.sol",
  "abi": [
    {
      "anonymous": false,
      "inputs": [
        {
          "indexed": true,
          "internalType": "uint256",
          "name": "bidId",
          "type": "uint256"
        },
        {
          "indexed": false,
          "internalType": "address",
          "name": "bidder",
          "type": "address"
        },
        {
          "indexed": false,
          "internalType": "uint256",
          "name": "listingId",
          "type": "uint256"
        }
      ],
      "name": "BidSubmitted",
      "type": "event"
    },
    {
      "anonymous": false,
      "inputs": [
        {
          "indexed": true,
          "internalType": "uint256",
          "name": "listingId",
          "type": "uint256"
        },
        {
          "indexed": false,
          "internalType": "address",
          "name": "seller",
          "type": "address"
        },
        {
          "indexed": false,
          "internalType": "string",
          "name": "encryptedPrice",
          "type": "string"
        }
      ],
      "name": "ListingCreated",
      "type": "event"
    },
    {
      "anonymous": false,
      "inputs": [
        {
          "indexed": true,
          "internalType": "uint256",
          "name": "listingId",
          "type": "uint256"
        },
        {
          "indexed": false,
          "internalType": "address",
          "name": "winner",
          "type": "address"
        },
        {
          "indexed": false,
          "internalType": "uint256",
          "name": "amount",
          "type": "uint256"
        }
      ],
      "name": "WinnerRevealed",
      "type": "event"
    },
    {
      "anonymous": false,
      "inputs": [
        {
          "indexed": true,
          "internalType": "uint256",
          "name": "listingId",
          "type": "uint256"
        },
        {
          "indexed": false,
          "internalType": "address",
          "name": "winner",
          "type": "address"
        },
        {
          "indexed": false,
          "internalType": "string",
          "name": "encryptedAmount",
          "type": "string"
        }
      ],
      "name": "WinnerSelected",
      "type": "event"
    },
    {
      "inputs": [],
      "name": "bidCounter",
      "outputs": [
        {
          "internalType": "uint256",
          "name": "",
          "type": "uint256"
        }
      ],
      "stateMutability": "view",
      "type": "function"
    },
    {
      "inputs": [
        {
          "internalType": "uint256",
          "name": "",
          "type": "uint256"
        }
      ],
      "name": "bids",
      "outputs": [
        {
          "internalType": "address",
          "name": "bidder",
          "type": "address"
        },
        {
          "internalType": "string",
          "name": "encryptedBid",
          "type": "string"
        },
        {
          "internalType": "uint256",
          "name": "listingId",
          "type": "uint256"
        },
        {
          "internalType": "uint256",
          "name": "timestamp",
          "type": "uint256"
        },
        {
          "internalType": "bool",
          "name": "revealed",
          "type": "bool"
        }
      ],
      "stateMutability": "view",
      "type": "function"
    },
    {
      "inputs": [
        {
          "internalType": "string",
          "name": "_encryptedPrice",
          "type": "string"
        }
      ],
      "name": "createListing",
      "outputs": [],
      "stateMutability": "nonpayable",
      "type": "function"
    },
    {
      "inputs": [
        {
          "internalType": "uint256",
          "name": "_bidId",
          "type": "uint256"
        }
      ],
      "name": "getBid",
      "outputs": [
        {
          "internalType": "address",
          "name": "bidder",
          "type": "address"
        },
        {
          "internalType": "string",
          "name": "encryptedBid",
          "type": "string"
        },
        {
          "internalType": "uint256",
          "name": "listingId",
          "type": "uint256"
        },
        {
          "internalType": "uint256",
          "name": "timestamp",
          "type": "uint256"
        }
      ],
      "stateMutability": "view",
      "type": "function"
    },
    {
      "inputs": [
        {
          "internalType": "uint256",
          "name": "_listingId",
          "type": "uint256"
        }
      ],
      "name": "getListing",
      "outputs": [
        {
          "internalType": "address",
          "name": "seller",
          "type": "address"
        },
        {
          "internalType": "string",
          "name": "encryptedPrice",
          "type": "string"
        },
        {
          "internalType": "uint256",
          "name": "timestamp",
          "type": "uint256"
        },
        {
          "internalType": "bool",
          "name": "active",
          "type": "bool"
        }
      ],
      "stateMutability": "view",
      "type": "function"
    },
    {
      "inputs": [
        {
          "internalType": "uint256",
          "name": "_listingId",
          "type": "uint256"
        }
      ],
      "name": "getWinner",
      "outputs": [
        {
          "internalType": "address",
          "name": "winner",
          "type": "address"
        },
        {
          "internalType": "string",
          "name": "encryptedAmount",
          "type": "string"
        },
        {
          "internalType": "bool",
          "name": "decrypted",
          "type": "bool"
        }
      ],
      "stateMutability": "view",
      "type": "function"
    },
    {
      "inputs": [],
      "name": "listingCounter",
      "outputs": [
        {
          "internalType": "uint256",
          "name": "",
          "type": "uint256"
        }
      ],
      "stateMutability": "view",
      "type": "function"
    },
    {
      "inputs": [
        {
          "internalType": "uint256",
          "name": "",
          "type": "uint256"
        }
      ],
      "name": "listings",
      "outputs": [
        {
          "internalType": "address",
          "name": "seller",
          "type": "address"
        },
        {
          "internalType": "string",
          "name": "encryptedPrice",
          "type": "string"
        },
        {
          "internalType": "uint256",
          "name": "listingId",
          "type": "uint256"
        },
        {
          "internalType": "uint256",
          "name": "timestamp",
          "type": "uint256"
        },
        {
          "internalType": "bool",
          "name": "active",
          "type": "bool"
        }
      ],
      "stateMutability": "view",
      "type": "function"
    },
    {
      "inputs": [
        {
          "internalType": "uint256",
          "name": "_listingId",
          "type": "uint256"
        },
        {
          "internalType": "uint256",
          "name": "_decryptedAmount",
          "type": "uint256"
        }
      ],
      "name": "revealWinner",
      "outputs": [],
      "stateMutability": "nonpayable",
      "type": "function"
    },
    {
      "inputs": [
        {
          "internalType": "uint256",
          "name": "_listingId",
          "type": "uint256"
        },
        {
          "internalType": "address",
          "name": "_winner",
          "type": "address"
        },
        {
          "internalType": "string",
          "name": "_encryptedAmount",
          "type": "string"
        }
      ],
      "name": "selectWinner",
      "outputs": [],
      "stateMutability": "nonpayable",
      "type": "function"
    },
    {
      "inputs": [
        {
          "internalType": "uint256",
          "name": "_listingId",
          "type": "uint256"
        },
        {
          "internalType": "string",
          "name": "_encryptedBid",
          "type": "string"
        }
      ],
      "name": "submitBid",
      "outputs": [],
      "stateMutability": "nonpayable",
      "type": "function"
    },
    {
      "inputs": [
        {
          "internalType": "uint256",
          "name": "",
          "type": "uint256"
        }
      ],
      "name": "winners",
      "outputs": [
        {
          "internalType": "address",
          "name": "winner",
          "type": "address"
        },
        {
          "internalType": "string",
          "name": "encryptedAmount",
          "type": "string"
        },
        {
          "internalType": "uint256",
          "name": "listingId",
          "type": "uint256"
        },
        {
          "internalType": "bool",
          "name": "decrypted",
          "type": "bool"
        }
      ],
      "stateMutability": "view",
      "type": "function"
    }
  ],
  "bytecode": "0x608060405234801561001057600080fd5b50611a91806100206000396000f3fe608060405234801561001057600080fd5b50600436106100b45760003560e01c806361245a381161007157806361245a38146101bf5780636c2c9c7d146101db578063a2fb1175146101f9578063a62829821461022c578063de74e57b14610248578063df13d7ad1461027c576100b4565b806303f69354146100b9578063107a274a146100d75780633a01135e1461010a5780633c889e6f146101265780634129b2c9146101595780634423c5f11461018b575b600080fd5b6100c1610298565b6040516100ce9190610fa4565b60405180910390f35b6100f160048036038101906100ec9190610fff565b61029e565b6040516101019493929190611118565b60405180910390f35b610124600480360381019061011f9190611299565b610402565b005b610140600480360381019061013b9190610fff565b6105a6565b60405161015094939291906112f5565b60405180910390f35b610173600480360381019061016e9190610fff565b61070a565b60405161018293929190611341565b60405180910390f35b6101a560048036038101906101a09190610fff565b61085b565b6040516101b695949392919061137f565b60405180910390f35b6101d960048036038101906101d491906113d9565b610946565b005b6101e3610a86565b6040516101f09190610fa4565b60405180910390f35b610213600480360381019061020e9190610fff565b610a8c565b6040516102239493929190611118565b60405180910390f35b6102466004803603810190610241919061144e565b610b71565b005b610262600480360381019061025d9190610fff565b610d2b565b60405161027395949392919061137f565b60405180910390f35b610296600480360381019061029191906114bd565b610e16565b005b60015481565b600060606000806000600260008781526020019081526020016000206040518060a00160405290816000820160009054906101000a900473ffffffffffffffffffffffffffffffffffffffff1673ffffffffffffffffffffffffffffffffffffffff1673ffffffffffffffffffffffffffffffffffffffff16815260200160018201805461032b9061152c565b80601f01602080910402602001604051908101604052809291908181526020018280546103579061152c565b80156103a45780601f10610379576101008083540402835291602001916103a4565b820191906000526020600020905b81548152906001019060200180831161038757829003601f168201915b5050505050815260200160028201548152602001600382015481526020016004820160009054906101000a900460ff161515151581525050905080600001518160200151826060015183608001519450945094509450509193509193565b6002600083815260200190815260200160002060040160009054906101000a900460ff16610465576040517f08c379a000000000000000000000000000000000000000000000000000000000815260040161045c906115a9565b60405180910390fd5b60016000815480929190610478906115f8565b91905055506040518060a001604052803373ffffffffffffffffffffffffffffffffffffffff1681526020018281526020018381526020014281526020016000151581525060036000600154815260200190815260200160002060008201518160000160006101000a81548173ffffffffffffffffffffffffffffffffffffffff021916908373ffffffffffffffffffffffffffffffffffffffff160217905550602082015181600101908161052e91906117ec565b50604082015181600201556060820151816003015560808201518160040160006101000a81548160ff0219169083151502179055509050506001547f177554f051f4aa1f0d0310334854b429baeecdb5a96bc329a26fd0cb7c8a7be3338460405161059a9291906118be565b60405180910390a25050565b600060606000806000600360008781526020019081526020016000206040518060a00160405290816000820160009054906101000a900473ffffffffffffffffffffffffffffffffffffffff1673ffffffffffffffffffffffffffffffffffffffff1673ffffffffffffffffffffffffffffffffffffffff1681526020016001820180546106339061152c565b80601f016020809104026020016040519081016040528092919081815260200182805461065f9061152c565b80156106ac5780601f10610681576101008083540402835291602001916106ac565b820191906000526020600020905b81548152906001019060200180831161068f57829003601f168201915b5050505050815260200160028201548152602001600382015481526020016004820160009054906101000a900460ff161515151581525050905080600001518160200151826040015183606001519450945094509450509193509193565b60006060600080600460008681526020019081526020016000206040518060800160405290816000820160009054906101000a900473ffffffffffffffffffffffffffffffffffffffff1673ffffffffffffffffffffffffffffffffffffffff1673ffffffffffffffffffffffffffffffffffffffff1681526020016001820180546107959061152c565b80601f01602080910402602001604051908101604052809291908181526020018280546107c19061152c565b801561080e5780601f106107e35761010080835404028352916020019161080e565b820191906000526020600020905b8154815290600101906020018083116107f157829003601f168201915b50505050508152602001600282015481526020016003820160009054906101000a900460ff1615151515815250509050806000015181602001518260600151935093509350509193909250565b60036020528060005260406000206000915090508060000160009054906101000a900473ffffffffffffffffffffffffffffffffffffffff16908060010180546108a49061152c565b80601f01602080910402602001604051908101604052809291908181526020018280546108d09061152c565b801561091d5780601f106108f25761010080835404028352916020019161091d565b820191906000526020600020905b81548152906001019060200180831161090057829003601f168201915b5050505050908060020154908060030154908060040160009054906101000a900460ff16905085565b600080815480929190610958906115f8565b91905055506040518060a001604052803373ffffffffffffffffffffffffffffffffffffffff168152602001828152602001600054815260200142815260200160011515815250600260008054815260200190815260200160002060008201518160000160006101000a81548173ffffffffffffffffffffffffffffffffffffffff021916908373ffffffffffffffffffffffffffffffffffffffff1602179055506020820151816001019081610a0f91906117ec565b50604082015181600201556060820151816003015560808201518160040160006101000a81548160ff0219169083151502179055509050506000547ffccfab3757a37767d03b5ffd499faaa9faf5a6d33900ee43e310e77bce34940b3383604051610a7b9291906118e7565b60405180910390a250565b60005481565b60046020528060005260406000206000915090508060000160009054906101000a900473ffffffffffffffffffffffffffffffffffffffff1690806001018054610ad59061152c565b80601f0160208091040260200160405190810160405280929190818152602001828054610b019061152c565b8015610b4e5780601f10610b2357610100808354040283529160200191610b4e565b820191906000526020600020905b815481529060010190602001808311610b3157829003601f168201915b5050505050908060020154908060030160009054906101000a900460ff16905084565b3373ffffffffffffffffffffffffffffffffffffffff166002600085815260200190815260200160002060000160009054906101000a900473ffffffffffffffffffffffffffffffffffffffff1673ffffffffffffffffffffffffffffffffffffffff1614610c15576040517f08c379a0000000000000000000000000000000000000000000000000000000008152600401610c0c90611963565b60405180910390fd5b60405180608001604052808373ffffffffffffffffffffffffffffffffffffffff168152602001828152602001848152602001600015158152506004600085815260200190815260200160002060008201518160000160006101000a81548173ffffffffffffffffffffffffffffffffffffffff021916908373ffffffffffffffffffffffffffffffffffffffff1602179055506020820151816001019081610cbe91906117ec565b506040820151816002015560608201518160030160006101000a81548160ff021916908315150217905550905050827ff0edb708abe2947e8b3a7d8a980b595e27795d26f851adb55831d7fcf10254b38383604051610d1e9291906118e7565b60405180910390a2505050565b60026020528060005260406000206000915090508060000160009054906101000a900473ffffffffffffffffffffffffffffffffffffffff1690806001018054610d749061152c565b80601f0160208091040260200160405190810160405280929190818152602001828054610da09061152c565b8015610ded5780601f10610dc257610100808354040283529160200191610ded565b820191906000526020600020905b815481529060010190602001808311610dd057829003601f168201915b5050505050908060020154908060030154908060040160009054906101000a900460ff16905085565b3373ffffffffffffffffffffffffffffffffffffffff166004600084815260200190815260200160002060000160009054906101000a900473ffffffffffffffffffffffffffffffffffffffff1673ffffffffffffffffffffffffffffffffffffffff1614610eba576040517f08c379a0000000000000000000000000000000000000000000000000000000008152600401610eb1906119cf565b60405180910390fd5b6004600083815260200190815260200160002060030160009054906101000a900460ff1615610f1e576040517f08c379a0000000000000000000000000000000000000000000000000000000008152600401610f1590611a3b565b60405180910390fd5b60016004600084815260200190815260200160002060030160006101000a81548160ff021916908315150217905550817f992535e802e8123e9eb931d979647edc6493f77f265deea35426b61dde47f78b3383604051610f7f9291906118be565b60405180910390a25050565b6000819050919050565b610f9e81610f8b565b82525050565b6000602082019050610fb96000830184610f95565b92915050565b6000604051905090565b600080fd5b600080fd5b610fdc81610f8b565b8114610fe757600080fd5b50565b600081359050610ff981610fd3565b92915050565b60006020828403121561101557611014610fc9565b5b600061102384828501610fea565b91505092915050565b600073ffffffffffffffffffffffffffffffffffffffff82169050919050565b60006110578261102c565b9050919050565b6110678161104c565b82525050565b600081519050919050565b600082825260208201905092915050565b60005b838110156110a757808201518184015260208101905061108c565b60008484015250505050565b6000601f19601f8301169050919050565b60006110cf8261106d565b6110d98185611078565b93506110e9818560208601611089565b6110f2816110b3565b840191505092915050565b60008115159050919050565b611112816110fd565b82525050565b600060808201905061112d600083018761105e565b818103602083015261113f81866110c4565b905061114e6040830185610f95565b61115b6060830184611109565b95945050505050565b600080fd5b600080fd5b7f4e487b7100000000000000000000000000000000000000000000000000000000600052604160045260246000fd5b6111a6826110b3565b810181811067ffffffffffffffff821117156111c5576111c461116e565b5b80604052505050565b60006111d8610fbf565b90506111e4828261119d565b919050565b600067ffffffffffffffff8211156112045761120361116e565b5b61120d826110b3565b9050602081019050919050565b82818337600083830152505050565b600061123c611237846111e9565b6111ce565b90508281526020810184848401111561125857611257611169565b5b61126384828561121a565b509392505050565b600082601f8301126112805761127f611164565b5b8135611290848260208601611229565b91505092915050565b600080604083850312156112b0576112af610fc9565b5b60006112be85828601610fea565b925050602083013567ffffffffffffffff8111156112df576112de610fce565b5b6112eb8582860161126b565b9150509250929050565b600060808201905061130a600083018761105e565b818103602083015261131c81866110c4565b905061132b6040830185610f95565b6113386060830184610f95565b95945050505050565b6000606082019050611356600083018661105e565b818103602083015261136881856110c4565b90506113776040830184611109565b949350505050565b600060a082019050611394600083018861105e565b81810360208301526113a681876110c4565b90506113b56040830186610f95565b6113c26060830185610f95565b6113cf6080830184611109565b9695505050505050565b6000602082840312156113ef576113ee610fc9565b5b600082013567ffffffffffffffff81111561140d5761140c610fce565b5b6114198482850161126b565b91505092915050565b61142b8161104c565b811461143657600080fd5b50565b60008135905061144881611422565b92915050565b60008060006060848603121561146757611466610fc9565b5b600061147586828701610fea565b935050602061148686828701611439565b925050604084013567ffffffffffffffff8111156114a7576114a6610fce565b5b6114b38682870161126b565b9150509250925092565b600080604083850312156114d4576114d3610fc9565b5b60006114e285828601610fea565b92505060206114f385828601610fea565b9150509250929050565b7f4e487b7100000000000000000000000000000000000000000000000000000000600052602260045260246000fd5b6000600282049050600182168061154457607f821691505b602082108103611557576115566114fd565b5b50919050565b7f4c697374696e67206e6f74206163746976650000000000000000000000000000600082015250565b6000611593601283611078565b915061159e8261155d565b602082019050919050565b600060208201905081810360008301526115c281611586565b9050919050565b7f4e487b7100000000000000000000000000000000000000000000000000000000600052601160045260246000fd5b600061160382610f8b565b91507fffffffffffffffffffffffffffffffffffffffffffffffffffffffffffffffff8203611635576116346115c9565b5b600182019050919050565b60008190508160005260206000209050919050565b60006020601f8301049050919050565b600082821b905092915050565b6000600883026116a27fffffffffffffffffffffffffffffffffffffffffffffffffffffffffffffffff82611665565b6116ac8683611665565b95508019841693508086168417925050509392505050565b6000819050919050565b60006116e96116e46116df84610f8b565b6116c4565b610f8b565b9050919050565b6000819050919050565b611703836116ce565b61171761170f826116f0565b848454611672565b825550505050565b600090565b61172c61171f565b6117378184846116fa565b505050565b5b8181101561175b57611750600082611724565b60018101905061173d565b5050565b601f8211156117a05761177181611640565b61177a84611655565b81016020851015611789578190505b61179d61179585611655565b83018261173c565b50505b505050565b600082821c905092915050565b60006117c3600019846008026117a5565b1980831691505092915050565b60006117dc83836117b2565b9150826002028217905092915050565b6117f58261106d565b67ffffffffffffffff81111561180e5761180d61116e565b5b611818825461152c565b61182382828561175f565b600060209050601f8311600181146118565760008415611844578287015190505b61184e85826117d0565b8655506118b6565b601f19841661186486611640565b60005b8281101561188c57848901518255600182019150602085019450602081019050611867565b868310156118a957848901516118a5601f8916826117b2565b8355505b6001600288020188555050505b505050505050565b60006040820190506118d3600083018561105e565b6118e06020830184610f95565b9392505050565b60006040820190506118fc600083018561105e565b818103602083015261190e81846110c4565b90509392505050565b7f4f6e6c792073656c6c65722063616e2073656c6563742077696e6e6572000000600082015250565b600061194d601d83611078565b915061195882611917565b602082019050919050565b6000602082019050818103600083015261197c81611940565b9050919050565b7f4f6e6c792077696e6e65722063616e2072657665616c00000000000000000000600082015250565b60006119b9601683611078565b91506119c482611983565b602082019050919050565b600060208201905081810360008301526119e8816119ac565b9050919050565b7f416c72656164792072657665616c656400000000000000000000000000000000600082015250565b6000611a25601083611078565b9150611a30826119ef565b602082019050919050565b60006020820190508181036000830152611a5481611a18565b905091905056fea2646970667358221220e2a2094e20d2e2260c8af56ab68eb1c6ca9b4fe58c2999fb3af70d8a016fafb364736f6c63430008130033",
  "linkReferences": {},
  "deployedLinkReferences": {}
}