{
  "_format": "hh-sol-artifact-1",
  "contractName": "MockDarkMarket",
  "sourceName": "contracts/MockDarkMarket.sol",
  "abi": [
    {
      "anonymous": false,
      "inputs": [
        {
          "indexed": true,
          "internalType": "uint256",
          "name": "bidId",
          "type": "uint256"
        },
        {
          "indexed": false,
          "internalType": "address",
          "name": "bidder",
          "type": "address"
        },
        {
          "indexed": false,
          "internalType": "uint256",
          "name": "listingId",
          "type": "uint256"
        }
      ],
      "name": "BidSubmitted",
      "type": "event"
    },
    {
      "anonymous": false,
      "inputs": [
        {
          "indexed": true,
          "internalType": "uint256",
          "name": "listingId",
          "type": "uint256"
        },
        {
          "indexed": false,
          "internalType": "address",
          "name": "seller",
          "type": "address"
        },
        {
          "indexed": false,
          "internalType": "string",
          "name": "encryptedPrice",
          "type": "string"
        }
      ],
      "name": "ListingCreated",
      "type": "event"
    },
    {
      "anonymous": false,
      "inputs": [
        {
          "indexed": true,
          "internalType": "uint256",
          "name": "listingId",
          "type": "uint256"
        },
        {
          "indexed": false,
          "internalType": "address",
          "name": "winner",
          "type": "address"
        },
        {
          "indexed": false,
          "internalType": "uint256",
          "name": "amount",
          "type": "uint256"
        }
      ],
      "name": "WinnerRevealed",
      "type": "event"
    },
    {
      "anonymous": false,
      "inputs": [
        {
          "indexed": true,
          "internalType": "uint256",
          "name": "listingId",
          "type": "uint256"
        },
        {
          "indexed": false,
          "internalType": "address",
          "name": "winner",
          "type": "address"
        },
        {
          "indexed": false,
          "internalType": "string",
          "name": "encryptedAmount",
          "type": "string"
        }
      ],
      "name": "WinnerSelected",
      "type": "event"
    },
    {
      "inputs": [],
      "name": "bidCounter",
      "outputs": [
        {
          "internalType": "uint256",
          "name": "",
          "type": "uint256"
        }
      ],
      "stateMutability": "view",
      "type": "function"
    },
    {
      "inputs": [
        {
          "internalType": "uint256",
          "name": "",
          "type": "uint256"
        }
      ],
      "name": "bids",
      "outputs": [
        {
          "internalType": "address",
          "name": "bidder",
          "type": "address"
        },
        {
          "internalType": "string",
          "name": "encryptedBid",
          "type": "string"
        },
        {
          "internalType": "uint256",
          "name": "listingId",
          "type": "uint256"
        },
        {
          "internalType": "uint256",
          "name": "timestamp",
          "type": "uint256"
        },
        {
          "internalType": "bool",
          "name": "revealed",
          "type": "bool"
        }
      ],
      "stateMutability": "view",
      "type": "function"
    },
    {
      "inputs": [
        {
          "internalType": "string",
          "name": "_encryptedPrice",
          "type": "string"
        }
      ],
      "name": "createListing",
      "outputs": [],
      "stateMutability": "nonpayable",
      "type": "function"
    },
    {
      "inputs": [
        {
          "internalType": "uint256",
          "name": "_bidId",
          "type": "uint256"
        }
      ],
      "name": "getBid",
      "outputs": [
        {
          "internalType": "address",
          "name": "bidder",
          "type": "address"
        },
        {
          "internalType": "string",
          "name": "encryptedBid",
          "type": "string"
        },
        {
          "internalType": "uint256",
          "name": "listingId",
          "type": "uint256"
        },
        {
          "internalType": "uint256",
          "name": "timestamp",
          "type": "uint256"
        }
      ],
      "stateMutability": "view",
      "type": "function"
    },
    {
      "inputs": [
        {
          "internalType": "uint256",
          "name": "_listingId",
          "type": "uint256"
        }
      ],
      "name": "getListing",
      "outputs": [
        {
          "internalType": "address",
          "name": "seller",
          "type": "address"
        },
        {
          "internalType": "string",
          "name": "encryptedPrice",
          "type": "string"
        },
        {
          "internalType": "uint256",
          "name": "timestamp",
          "type": "uint256"
        },
        {
          "internalType": "bool",
          "name": "active",
          "type": "bool"
        }
      ],
      "stateMutability": "view",
      "type": "function"
    },
    {
      "inputs": [
        {
          "internalType": "uint256",
          "name": "_listingId",
          "type": "uint256"
        }
      ],
      "name": "getWinner",
      "outputs": [
        {
          "internalType": "address",
          "name": "winner",
          "type": "address"
        },
        {
          "internalType": "string",
          "name": "encryptedAmount",
          "type": "string"
        },
        {
          "internalType": "bool",
          "name": "decrypted",
          "type": "bool"
        }
      ],
      "stateMutability": "view",
      "type": "function"
    },
    {
      "inputs": [],
      "name": "listingCounter",
      "outputs": [
        {
          "internalType": "uint256",
          "name": "",
          "type": "uint256"
        }
      ],
      "stateMutability": "view",
      "type": "function"
    },
    {
      "inputs": [
        {
          "internalType": "uint256",
          "name": "",
          "type": "uint256"
        }
      ],
      "name": "listings",
      "outputs": [
        {
          "internalType": "address",
          "name": "seller",
          "type": "address"
        },
        {
          "internalType": "string",
          "name": "encryptedPrice",
          "type": "string"
        },
        {
          "internalType": "uint256",
          "name": "listingId",
          "type": "uint256"
        },
        {
          "internalType": "uint256",
          "name": "timestamp",
          "type": "uint256"
        },
        {
          "internalType": "bool",
          "name": "active",
          "type": "bool"
        }
      ],
      "stateMutability": "view",
      "type": "function"
    },
    {
      "inputs": [
        {
          "internalType": "uint256",
          "name": "_listingId",
          "type": "uint256"
        },
        {
          "internalType": "uint256",
          "name": "_decryptedAmount",
          "type": "uint256"
        }
      ],
      "name": "revealWinner",
      "outputs": [],
      "stateMutability": "nonpayable",
      "type": "function"
    },
    {
      "inputs": [
        {
          "internalType": "uint256",
          "name": "_listingId",
          "type": "uint256"
        },
        {
          "internalType": "address",
          "name": "_winner",
          "type": "address"
        },
        {
          "internalType": "string",
          "name": "_encryptedAmount",
          "type": "string"
        }
      ],
      "name": "selectWinner",
      "outputs": [],
      "stateMutability": "nonpayable",
      "type": "function"
    },
    {
      "inputs": [
        {
          "internalType": "uint256",
          "name": "_listingId",
          "type": "uint256"
        },
        {
          "internalType": "string",
          "name": "_encryptedBid",
          "type": "string"
        }
      ],
      "name": "submitBid",
      "outputs": [],
      "stateMutability": "nonpayable",
      "type": "function"
    },
    {
      "inputs": [
        {
          "internalType": "uint256",
          "name": "",
          "type": "uint256"
        }
      ],
      "name": "winners",
      "outputs": [
        {
          "internalType": "address",
          "name": "winner",
          "type": "address"
        },
        {
          "internalType": "string",
          "name": "encryptedAmount",
          "type": "string"
        },
        {
          "internalType": "uint256",
          "name": "listingId",
          "type": "uint256"
        },
        {
          "internalType": "bool",
          "name": "decrypted",
          "type": "bool"
        }
      ],
      "stateMutability": "view",
      "type": "function"
    }
  ],
  "bytecode": "0x608060405234801561001057600080fd5b50610fe2806100206000396000f3fe608060405234801561001057600080fd5b50600436106100b45760003560e01c806361245a381161007157806361245a38146101765780636c2c9c7d14610189578063a2fb117514610192578063a6282982146101a5578063de74e57b146101b8578063df13d7ad146101cb57600080fd5b806303f69354146100b9578063107a274a146100d55780633a01135e146100f85780633c889e6f1461010d5780634129b2c9146101305780634423c5f114610152575b600080fd5b6100c260015481565b6040519081526020015b60405180910390f35b6100e86100e3366004610b1f565b6101de565b6040516100cc9493929190610b7e565b61010b610106366004610c5d565b6102ef565b005b61012061011b366004610b1f565b610438565b6040516100cc9493929190610ca4565b61014361013e366004610b1f565b61054d565b6040516100cc93929190610cdb565b610165610160366004610b1f565b61064b565b6040516100cc959493929190610d11565b61010b610184366004610d54565b610711565b6100c260005481565b6100e86101a0366004610b1f565b6107fd565b61010b6101b3366004610d91565b6108bc565b6101656101c6366004610b1f565b6109ea565b61010b6101d9366004610df6565b610a16565b6000818152600260209081526040808320815160a0810190925280546001600160a01b03168252600181018054606094869485948594919390928401919061022590610e18565b80601f016020809104026020016040519081016040528092919081815260200182805461025190610e18565b801561029e5780601f106102735761010080835404028352916020019161029e565b820191906000526020600020905b81548152906001019060200180831161028157829003601f168201915b505050918352505060028201546020808301919091526003830154604083015260049092015460ff161515606091820152825191830151908301516080909301519199909850919650945092505050565b60008281526002602052604090206004015460ff1661034a5760405162461bcd60e51b81526020600482015260126024820152714c697374696e67206e6f742061637469766560701b60448201526064015b60405180910390fd5b6001805490600061035a83610e52565b90915550506040805160a0810182523381526020808201848152828401869052426060840152600060808401819052600180548252600390935293909320825181546001600160a01b0319166001600160a01b039091161781559251919291908201906103c79082610ec8565b506040828101516002830155606083015160038301556080909201516004909101805460ff191691151591909117905560015481513381526020810185905290917f177554f051f4aa1f0d0310334854b429baeecdb5a96bc329a26fd0cb7c8a7be391015b60405180910390a25050565b6000818152600360209081526040808320815160a0810190925280546001600160a01b03168252600181018054606094869485948594919390928401919061047f90610e18565b80601f01602080910402602001604051908101604052809291908181526020018280546104ab90610e18565b80156104f85780601f106104cd576101008083540402835291602001916104f8565b820191906000526020600020905b8154815290600101906020018083116104db57829003601f168201915b50505091835250506002820154602080830191909152600383015460408084019190915260049093015460ff161515606092830152835190840151928401519390910151909991985091965090945092505050565b600081815260046020908152604080832081516080810190925280546001600160a01b0316825260018101805460609486948594909390929184019161059290610e18565b80601f01602080910402602001604051908101604052809291908181526020018280546105be90610e18565b801561060b5780601f106105e05761010080835404028352916020019161060b565b820191906000526020600020905b8154815290600101906020018083116105ee57829003601f168201915b5050509183525050600282015460208083019190915260039092015460ff1615156040909101528151908201516060909201519097919650945092505050565b600360205260009081526040902080546001820180546001600160a01b03909216929161067790610e18565b80601f01602080910402602001604051908101604052809291908181526020018280546106a390610e18565b80156106f05780601f106106c5576101008083540402835291602001916106f0565b820191906000526020600020905b8154815290600101906020018083116106d357829003601f168201915b50505050600283015460038401546004909401549293909290915060ff1685565b60008054908061072083610e52565b90915550506040805160a081018252338152602080820184815260008054848601819052426060860152600160808601819052908252600290935293909320825181546001600160a01b0319166001600160a01b0390911617815592519192919082019061078e9082610ec8565b506040828101516002830155606083015160038301556080909201516004909101805460ff191691151591909117905560005490517ffccfab3757a37767d03b5ffd499faaa9faf5a6d33900ee43e310e77bce34940b906107f29033908590610f88565b60405180910390a250565b600460205260009081526040902080546001820180546001600160a01b03909216929161082990610e18565b80601f016020809104026020016040519081016040528092919081815260200182805461085590610e18565b80156108a25780601f10610877576101008083540402835291602001916108a2565b820191906000526020600020905b81548152906001019060200180831161088557829003601f168201915b50505050600283015460039093015491929160ff16905084565b6000838152600260205260409020546001600160a01b031633146109225760405162461bcd60e51b815260206004820152601d60248201527f4f6e6c792073656c6c65722063616e2073656c6563742077696e6e65720000006044820152606401610341565b604080516080810182526001600160a01b03848116825260208083018581528385018890526000606085018190528881526004909252939020825181546001600160a01b0319169216919091178155915190919060018201906109859082610ec8565b5060408281015160028301556060909201516003909101805460ff19169115159190911790555183907ff0edb708abe2947e8b3a7d8a980b595e27795d26f851adb55831d7fcf10254b3906109dd9085908590610f88565b60405180910390a2505050565b600260205260009081526040902080546001820180546001600160a01b03909216929161067790610e18565b6000828152600460205260409020546001600160a01b03163314610a755760405162461bcd60e51b815260206004820152601660248201527513db9b1e481dda5b9b995c8818d85b881c995d99585b60521b6044820152606401610341565b60008281526004602052604090206003015460ff1615610aca5760405162461bcd60e51b815260206004820152601060248201526f105b1c9958591e481c995d99585b195960821b6044820152606401610341565b600082815260046020908152604091829020600301805460ff19166001179055815133815290810183905283917f992535e802e8123e9eb931d979647edc6493f77f265deea35426b61dde47f78b910161042c565b600060208284031215610b3157600080fd5b5035919050565b6000815180845260005b81811015610b5e57602081850181015186830182015201610b42565b506000602082860101526020601f19601f83011685010191505092915050565b6001600160a01b0385168152608060208201819052600090610ba290830186610b38565b60408301949094525090151560609091015292915050565b634e487b7160e01b600052604160045260246000fd5b600082601f830112610be157600080fd5b813567ffffffffffffffff80821115610bfc57610bfc610bba565b604051601f8301601f19908116603f01168101908282118183101715610c2457610c24610bba565b81604052838152866020858801011115610c3d57600080fd5b836020870160208301376000602085830101528094505050505092915050565b60008060408385031215610c7057600080fd5b82359150602083013567ffffffffffffffff811115610c8e57600080fd5b610c9a85828601610bd0565b9150509250929050565b6001600160a01b0385168152608060208201819052600090610cc890830186610b38565b6040830194909452506060015292915050565b6001600160a01b0384168152606060208201819052600090610cff90830185610b38565b90508215156040830152949350505050565b6001600160a01b038616815260a060208201819052600090610d3590830187610b38565b6040830195909552506060810192909252151560809091015292915050565b600060208284031215610d6657600080fd5b813567ffffffffffffffff811115610d7d57600080fd5b610d8984828501610bd0565b949350505050565b600080600060608486031215610da657600080fd5b8335925060208401356001600160a01b0381168114610dc457600080fd5b9150604084013567ffffffffffffffff811115610de057600080fd5b610dec86828701610bd0565b9150509250925092565b60008060408385031215610e0957600080fd5b50508035926020909101359150565b600181811c90821680610e2c57607f821691505b602082108103610e4c57634e487b7160e01b600052602260045260246000fd5b50919050565b600060018201610e7257634e487b7160e01b600052601160045260246000fd5b5060010190565b601f821115610ec357600081815260208120601f850160051c81016020861015610ea05750805b601f850160051c820191505b81811015610ebf57828155600101610eac565b5050505b505050565b815167ffffffffffffffff811115610ee257610ee2610bba565b610ef681610ef08454610e18565b84610e79565b602080601f831160018114610f2b5760008415610f135750858301515b600019600386901b1c1916600185901b178555610ebf565b600085815260208120601f198616915b82811015610f5a57888601518255948401946001909101908401610f3b565b5085821015610f785787850151600019600388901b60f8161c191681555b5050505050600190811b01905550565b6001600160a01b0383168152604060208201819052600090610d8990830184610b3856fea26469706673582212206514293334caf464e3490fe3b145d06cd15c093a528de6644eb26c5ae7f9ee2b64736f6c63430008130033",
  "linkReferences": {},
  "deployedLinkReferences": {}
}