{
  "_format": "hh-sol-artifact-1",
  "contractName": "EncryptedMath",
  "sourceName": "contracts/EncryptedMath.sol",
  "abi": [
    {
      "inputs": [
        {
          "internalType": "string",
          "name": "ciphertext1",
          "type": "string"
        },
        {
          "internalType": "string",
          "name": "ciphertext2",
          "type": "string"
        }
      ],
      "name": "addEncrypted",
      "outputs": [
        {
          "internalType": "string",
          "name": "",
          "type": "string"
        }
      ],
      "stateMutability": "pure",
      "type": "function"
    },
    {
      "inputs": [
        {
          "internalType": "string",
          "name": "ciphertext1",
          "type": "string"
        },
        {
          "internalType": "string",
          "name": "ciphertext2",
          "type": "string"
        }
      ],
      "name": "compareEncrypted",
      "outputs": [
        {
          "internalType": "uint8",
          "name": "",
          "type": "uint8"
        }
      ],
      "stateMutability": "pure",
      "type": "function"
    },
    {
      "inputs": [
        {
          "internalType": "string",
          "name": "ciphertext1",
          "type": "string"
        },
        {
          "internalType": "string",
          "name": "ciphertext2",
          "type": "string"
        }
      ],
      "name": "encryptedMax",
      "outputs": [
        {
          "internalType": "string",
          "name": "",
          "type": "string"
        }
      ],
      "stateMutability": "pure",
      "type": "function"
    }
  ],
  "bytecode": "0x608060405234801561001057600080fd5b5061032c806100206000396000f3fe608060405234801561001057600080fd5b50600436106100415760003560e01c80637ea5e07d1461004657806385ab24071461006f578063a531279714610094575b600080fd5b6100596100543660046101d7565b6100a7565b604051610066919061025f565b60405180910390f35b61008261007d3660046101d7565b6100d4565b60405160ff9091168152602001610066565b6100596100a23660046101d7565b610110565b606082826040516020016100bc929190610292565b60405160208183030381529060405290505b92915050565b805182516000918491849110156100f0576001925050506100ce565b805182511015610105576002925050506100ce565b6000925050506100ce565b80518251606091849184911161012a5784925050506100ce565b83925050506100ce565b634e487b7160e01b600052604160045260246000fd5b600082601f83011261015b57600080fd5b813567ffffffffffffffff8082111561017657610176610134565b604051601f8301601f19908116603f0116810190828211818310171561019e5761019e610134565b816040528381528660208588010111156101b757600080fd5b836020870160208301376000602085830101528094505050505092915050565b600080604083850312156101ea57600080fd5b823567ffffffffffffffff8082111561020257600080fd5b61020e8683870161014a565b9350602085013591508082111561022457600080fd5b506102318582860161014a565b9150509250929050565b60005b8381101561025657818101518382015260200161023e565b50506000910152565b602081526000825180602084015261027e81604085016020870161023b565b601f01601f19169190910160400192915050565b6d0cadcc6e4f2e0e8cac8bec2c8c8560931b8152600083516102bb81600e85016020880161023b565b600b60fa1b600e9184019182015283516102dc81600f84016020880161023b565b602960f81b600f929091019182015260100194935050505056fea26469706673582212209dabcc2e25bbaede8f6f15be1a337bceb98bacf7389ab5b670fef800fa23268c64736f6c63430008130033",
  "linkReferences": {},
  "deployedLinkReferences": {}
}